{
  "address": "0xFA2f6bA18BdA1112b6977778F45F99d0f8038d18",
  "abi": [
    {
      "inputs": [
        {
          "internalType": "uint256",
          "name": "_locktime",
          "type": "uint256"
        },
        {
          "internalType": "address",
          "name": "dataFeedaddr",
          "type": "address"
        }
      ],
      "stateMutability": "nonpayable",
      "type": "constructor"
    },
    {
      "inputs": [
        {
          "internalType": "address",
          "name": "",
          "type": "address"
        }
      ],
      "name": "FundersToAmount",
      "outputs": [
        {
          "internalType": "uint256",
          "name": "",
          "type": "uint256"
        }
      ],
      "stateMutability": "view",
      "type": "function"
    },
    {
      "inputs": [],
      "name": "dataFeed",
      "outputs": [
        {
          "internalType": "contract AggregatorV3Interface",
          "name": "",
          "type": "address"
        }
      ],
      "stateMutability": "view",
      "type": "function"
    },
    {
      "inputs": [],
      "name": "fund",
      "outputs": [],
      "stateMutability": "payable",
      "type": "function"
    },
    {
      "inputs": [],
      "name": "getChainlinkDataFeedLatestAnswer",
      "outputs": [
        {
          "internalType": "int256",
          "name": "",
          "type": "int256"
        }
      ],
      "stateMutability": "view",
      "type": "function"
    },
    {
      "inputs": [],
      "name": "getFund",
      "outputs": [],
      "stateMutability": "nonpayable",
      "type": "function"
    },
    {
      "inputs": [],
      "name": "getFundSuccess",
      "outputs": [
        {
          "internalType": "bool",
          "name": "",
          "type": "bool"
        }
      ],
      "stateMutability": "view",
      "type": "function"
    },
    {
      "inputs": [],
      "name": "owner",
      "outputs": [
        {
          "internalType": "address",
          "name": "",
          "type": "address"
        }
      ],
      "stateMutability": "view",
      "type": "function"
    },
    {
      "inputs": [],
      "name": "reFund",
      "outputs": [],
      "stateMutability": "nonpayable",
      "type": "function"
    },
    {
      "inputs": [
        {
          "internalType": "address",
          "name": "_erc20addr",
          "type": "address"
        }
      ],
      "name": "setERC20Addr",
      "outputs": [],
      "stateMutability": "nonpayable",
      "type": "function"
    },
    {
      "inputs": [
        {
          "internalType": "address",
          "name": "funder",
          "type": "address"
        },
        {
          "internalType": "uint256",
          "name": "_amountupdata",
          "type": "uint256"
        }
      ],
      "name": "setFunderToamount",
      "outputs": [],
      "stateMutability": "nonpayable",
      "type": "function"
    },
    {
      "inputs": [
        {
          "internalType": "address",
          "name": "newOwner",
          "type": "address"
        }
      ],
      "name": "transferOwnership",
      "outputs": [],
      "stateMutability": "nonpayable",
      "type": "function"
    }
  ],
  "transactionHash": "0x8eac58bb6d76eadac97cbc4e0165ff8c294e472b18a9373a0baf181bb5b7a4ab",
  "args": [
    180,
    "0x694aa1769357215de4fac081bf1f309adc325306"
  ],
  "numDeployments": 1,
  "solcInputHash": "954a934416d2b8b85e753204dc6ef250",
  "bytecode": "0x608060405268056bc75e2d631000006001556000600560146101000a81548160ff02191690831515021790555034801561003857600080fd5b50604051611664380380611664833981810160405281019061005a919061018a565b80600660006101000a81548173ffffffffffffffffffffffffffffffffffffffff021916908373ffffffffffffffffffffffffffffffffffffffff16021790555033600260006101000a81548173ffffffffffffffffffffffffffffffffffffffff021916908373ffffffffffffffffffffffffffffffffffffffff160217905550426004819055508160038190555050506101ca565b600080fd5b6000819050919050565b610109816100f6565b811461011457600080fd5b50565b60008151905061012681610100565b92915050565b600073ffffffffffffffffffffffffffffffffffffffff82169050919050565b60006101578261012c565b9050919050565b6101678161014c565b811461017257600080fd5b50565b6000815190506101848161015e565b92915050565b600080604083850312156101a1576101a06100f1565b5b60006101af85828601610117565b92505060206101c085828601610175565b9150509250929050565b61148b806101d96000396000f3fe60806040526004361061009c5760003560e01c80639e42ff90116100645780639e42ff901461014c5780639fb3af5714610177578063b60d4288146101b4578063bea4dfb5146101be578063da4658e0146101e9578063f2fde38b146102145761009c565b806309bf8c39146100a15780630ff0a4df146100ca578063648c2910146100e15780638da5cb5b1461010a5780638edd6eb614610135575b600080fd5b3480156100ad57600080fd5b506100c860048036038101906100c39190610c64565b61023d565b005b3480156100d657600080fd5b506100df610314565b005b3480156100ed57600080fd5b5061010860048036038101906101039190610ca4565b610571565b005b34801561011657600080fd5b5061011f610645565b60405161012c9190610ce0565b60405180910390f35b34801561014157600080fd5b5061014a61066b565b005b34801561015857600080fd5b50610161610871565b60405161016e9190610d5a565b60405180910390f35b34801561018357600080fd5b5061019e60048036038101906101999190610ca4565b610897565b6040516101ab9190610d84565b60405180910390f35b6101bc6108af565b005b3480156101ca57600080fd5b506101d36109a4565b6040516101e09190610db8565b60405180910390f35b3480156101f557600080fd5b506101fe610a45565b60405161020b9190610dee565b60405180910390f35b34801561022057600080fd5b5061023b60048036038101906102369190610ca4565b610a58565b005b600560009054906101000a900473ffffffffffffffffffffffffffffffffffffffff1673ffffffffffffffffffffffffffffffffffffffff163373ffffffffffffffffffffffffffffffffffffffff16146102cd576040517f08c379a00000000000000000000000000000000000000000000000000000000081526004016102c490610e8c565b60405180910390fd5b806000808473ffffffffffffffffffffffffffffffffffffffff1673ffffffffffffffffffffffffffffffffffffffff168152602001908152602001600020819055505050565b6003546004546103249190610edb565b421015610366576040517f08c379a000000000000000000000000000000000000000000000000000000000815260040161035d90610f5b565b60405180910390fd5b60008060003373ffffffffffffffffffffffffffffffffffffffff1673ffffffffffffffffffffffffffffffffffffffff16815260200190815260200160002054036103e7576040517f08c379a00000000000000000000000000000000000000000000000000000000081526004016103de90610fc7565b60405180910390fd5b683635c9adc5dea000006103fa47610b9b565b1061043a576040517f08c379a000000000000000000000000000000000000000000000000000000000815260040161043190611033565b60405180910390fd5b60008060003373ffffffffffffffffffffffffffffffffffffffff1673ffffffffffffffffffffffffffffffffffffffff16815260200190815260200160002054905060008060003373ffffffffffffffffffffffffffffffffffffffff1673ffffffffffffffffffffffffffffffffffffffff1681526020019081526020016000208190555060003373ffffffffffffffffffffffffffffffffffffffff16826040516104e790611084565b60006040518083038185875af1925050503d8060008114610524576040519150601f19603f3d011682016040523d82523d6000602084013e610529565b606091505b505090508061056d576040517f08c379a0000000000000000000000000000000000000000000000000000000008152600401610564906110e5565b60405180910390fd5b5050565b600260009054906101000a900473ffffffffffffffffffffffffffffffffffffffff1673ffffffffffffffffffffffffffffffffffffffff163373ffffffffffffffffffffffffffffffffffffffff1614610601576040517f08c379a00000000000000000000000000000000000000000000000000000000081526004016105f890611151565b60405180910390fd5b80600560006101000a81548173ffffffffffffffffffffffffffffffffffffffff021916908373ffffffffffffffffffffffffffffffffffffffff16021790555050565b600260009054906101000a900473ffffffffffffffffffffffffffffffffffffffff1681565b600260009054906101000a900473ffffffffffffffffffffffffffffffffffffffff1673ffffffffffffffffffffffffffffffffffffffff163373ffffffffffffffffffffffffffffffffffffffff16146106fb576040517f08c379a00000000000000000000000000000000000000000000000000000000081526004016106f290611151565b60405180910390fd5b60035460045461070b9190610edb565b42101561074d576040517f08c379a000000000000000000000000000000000000000000000000000000000815260040161074490610f5b565b60405180910390fd5b683635c9adc5dea0000061076047610b9b565b10156107a1576040517f08c379a000000000000000000000000000000000000000000000000000000000815260040161079890611033565b60405180910390fd5b600047905060003373ffffffffffffffffffffffffffffffffffffffff16826040516107cc90611084565b60006040518083038185875af1925050503d8060008114610809576040519150601f19603f3d011682016040523d82523d6000602084013e61080e565b606091505b5050905080610852576040517f08c379a0000000000000000000000000000000000000000000000000000000008152600401610849906111bd565b60405180910390fd5b6001600560146101000a81548160ff0219169083151502179055505050565b600660009054906101000a900473ffffffffffffffffffffffffffffffffffffffff1681565b60006020528060005260406000206000915090505481565b6108b834610b9b565b60015411156108fc576040517f08c379a00000000000000000000000000000000000000000000000000000000081526004016108f390611229565b60405180910390fd5b60035460045461090c9190610edb565b421061094d576040517f08c379a000000000000000000000000000000000000000000000000000000000815260040161094490610f5b565b60405180910390fd5b346000803373ffffffffffffffffffffffffffffffffffffffff1673ffffffffffffffffffffffffffffffffffffffff168152602001908152602001600020600082825461099b9190610edb565b92505081905550565b600080600660009054906101000a900473ffffffffffffffffffffffffffffffffffffffff1673ffffffffffffffffffffffffffffffffffffffff1663feaf968c6040518163ffffffff1660e01b815260040160a060405180830381865afa158015610a14573d6000803e3d6000fd5b505050506040513d601f19601f82011682018060405250810190610a3891906112cc565b5050509150508091505090565b600560149054906101000a900460ff1681565b600260009054906101000a900473ffffffffffffffffffffffffffffffffffffffff1673ffffffffffffffffffffffffffffffffffffffff163373ffffffffffffffffffffffffffffffffffffffff1614610ae8576040517f08c379a0000000000000000000000000000000000000000000000000000000008152600401610adf90611151565b60405180910390fd5b600073ffffffffffffffffffffffffffffffffffffffff168173ffffffffffffffffffffffffffffffffffffffff1603610b57576040517f08c379a0000000000000000000000000000000000000000000000000000000008152600401610b4e90611393565b60405180910390fd5b80600260006101000a81548173ffffffffffffffffffffffffffffffffffffffff021916908373ffffffffffffffffffffffffffffffffffffffff16021790555050565b600080610ba66109a4565b90506305f5e1008184610bb991906113b3565b610bc39190611424565b915050919050565b600080fd5b600073ffffffffffffffffffffffffffffffffffffffff82169050919050565b6000610bfb82610bd0565b9050919050565b610c0b81610bf0565b8114610c1657600080fd5b50565b600081359050610c2881610c02565b92915050565b6000819050919050565b610c4181610c2e565b8114610c4c57600080fd5b50565b600081359050610c5e81610c38565b92915050565b60008060408385031215610c7b57610c7a610bcb565b5b6000610c8985828601610c19565b9250506020610c9a85828601610c4f565b9150509250929050565b600060208284031215610cba57610cb9610bcb565b5b6000610cc884828501610c19565b91505092915050565b610cda81610bf0565b82525050565b6000602082019050610cf56000830184610cd1565b92915050565b6000819050919050565b6000610d20610d1b610d1684610bd0565b610cfb565b610bd0565b9050919050565b6000610d3282610d05565b9050919050565b6000610d4482610d27565b9050919050565b610d5481610d39565b82525050565b6000602082019050610d6f6000830184610d4b565b92915050565b610d7e81610c2e565b82525050565b6000602082019050610d996000830184610d75565b92915050565b6000819050919050565b610db281610d9f565b82525050565b6000602082019050610dcd6000830184610da9565b92915050565b60008115159050919050565b610de881610dd3565b82525050565b6000602082019050610e036000830184610ddf565b92915050565b600082825260208201905092915050565b7f796f7520646f2068617665207065726d69737374696f6e20746f2063616c6c2060008201527f746869732066756e6374696f6e00000000000000000000000000000000000000602082015250565b6000610e76602d83610e09565b9150610e8182610e1a565b604082019050919050565b60006020820190508181036000830152610ea581610e69565b9050919050565b7f4e487b7100000000000000000000000000000000000000000000000000000000600052601160045260246000fd5b6000610ee682610c2e565b9150610ef183610c2e565b9250828201905080821115610f0957610f08610eac565b5b92915050565b7f77696e646f77206973206e6f7420636c6f736564000000000000000000000000600082015250565b6000610f45601483610e09565b9150610f5082610f0f565b602082019050919050565b60006020820190508181036000830152610f7481610f38565b9050919050565b7f7468657265206973206e6f2066756e6420666f7220796f750000000000000000600082015250565b6000610fb1601883610e09565b9150610fbc82610f7b565b602082019050919050565b60006020820190508181036000830152610fe081610fa4565b9050919050565b7f746172676574206973206e6f7420726561636865640000000000000000000000600082015250565b600061101d601583610e09565b915061102882610fe7565b602082019050919050565b6000602082019050818103600083015261104c81611010565b9050919050565b600081905092915050565b50565b600061106e600083611053565b91506110798261105e565b600082019050919050565b600061108f82611061565b9150819050919050565b7f7472616e73666572207468206661696c65640000000000000000000000000000600082015250565b60006110cf601283610e09565b91506110da82611099565b602082019050919050565b600060208201905081810360008301526110fe816110c2565b9050919050565b7f6973206e6f74206f776e65720000000000000000000000000000000000000000600082015250565b600061113b600c83610e09565b915061114682611105565b602082019050919050565b6000602082019050818103600083015261116a8161112e565b9050919050565b7f7265616e73666572207478206661696c65640000000000000000000000000000600082015250565b60006111a7601283610e09565b91506111b282611171565b602082019050919050565b600060208201905081810360008301526111d68161119a565b9050919050565b7f73656e64206d6f72652045544800000000000000000000000000000000000000600082015250565b6000611213600d83610e09565b915061121e826111dd565b602082019050919050565b6000602082019050818103600083015261124281611206565b9050919050565b600069ffffffffffffffffffff82169050919050565b61126881611249565b811461127357600080fd5b50565b6000815190506112858161125f565b92915050565b61129481610d9f565b811461129f57600080fd5b50565b6000815190506112b18161128b565b92915050565b6000815190506112c681610c38565b92915050565b600080600080600060a086880312156112e8576112e7610bcb565b5b60006112f688828901611276565b9550506020611307888289016112a2565b9450506040611318888289016112b7565b9350506060611329888289016112b7565b925050608061133a88828901611276565b9150509295509295909350565b7f7a65726f20616464726573730000000000000000000000000000000000000000600082015250565b600061137d600c83610e09565b915061138882611347565b602082019050919050565b600060208201905081810360008301526113ac81611370565b9050919050565b60006113be82610c2e565b91506113c983610c2e565b92508282026113d781610c2e565b915082820484148315176113ee576113ed610eac565b5b5092915050565b7f4e487b7100000000000000000000000000000000000000000000000000000000600052601260045260246000fd5b600061142f82610c2e565b915061143a83610c2e565b92508261144a576114496113f5565b5b82820490509291505056fea264697066735822122093e1de28728d03bd41049f54a724608822574efd401d7433bfcfdf1f2bb0863464736f6c634300081c0033",
  "devdoc": {
    "kind": "dev",
    "methods": {},
    "version": 1
  },
  "userdoc": {
    "kind": "user",
    "methods": {},
    "version": 1
  },
  "storageLayout": {
    "storage": [
      {
        "astId": 53,
        "contract": "contracts/FoundMe.sol:FundMe",
        "label": "FundersToAmount",
        "offset": 0,
        "slot": "0",
        "type": "t_mapping(t_address,t_uint256)"
      },
      {
        "astId": 60,
        "contract": "contracts/FoundMe.sol:FundMe",
        "label": "MINIMUVALUE",
        "offset": 0,
        "slot": "1",
        "type": "t_uint256"
      },
      {
        "astId": 69,
        "contract": "contracts/FoundMe.sol:FundMe",
        "label": "owner",
        "offset": 0,
        "slot": "2",
        "type": "t_address"
      },
      {
        "astId": 71,
        "contract": "contracts/FoundMe.sol:FundMe",
        "label": "locktime",
        "offset": 0,
        "slot": "3",
        "type": "t_uint256"
      },
      {
        "astId": 73,
        "contract": "contracts/FoundMe.sol:FundMe",
        "label": "deploymentTimestamp",
        "offset": 0,
        "slot": "4",
        "type": "t_uint256"
      },
      {
        "astId": 75,
        "contract": "contracts/FoundMe.sol:FundMe",
        "label": "ERC20Addr",
        "offset": 0,
        "slot": "5",
        "type": "t_address"
      },
      {
        "astId": 78,
        "contract": "contracts/FoundMe.sol:FundMe",
        "label": "getFundSuccess",
        "offset": 20,
        "slot": "5",
        "type": "t_bool"
      },
      {
        "astId": 113,
        "contract": "contracts/FoundMe.sol:FundMe",
        "label": "dataFeed",
        "offset": 0,
        "slot": "6",
        "type": "t_contract(AggregatorV3Interface)45"
      }
    ],
    "types": {
      "t_address": {
        "encoding": "inplace",
        "label": "address",
        "numberOfBytes": "20"
      },
      "t_bool": {
        "encoding": "inplace",
        "label": "bool",
        "numberOfBytes": "1"
      },
      "t_contract(AggregatorV3Interface)45": {
        "encoding": "inplace",
        "label": "contract AggregatorV3Interface",
        "numberOfBytes": "20"
      },
      "t_mapping(t_address,t_uint256)": {
        "encoding": "mapping",
        "key": "t_address",
        "label": "mapping(address => uint256)",
        "numberOfBytes": "32",
        "value": "t_uint256"
      },
      "t_uint256": {
        "encoding": "inplace",
        "label": "uint256",
        "numberOfBytes": "32"
      }
    }
  }
}